{
  "contractName": "Docverify",
  "abi": [
    {
      "constant": true,
      "inputs": [],
      "name": "message",
      "outputs": [
        {
          "name": "",
          "type": "string"
        }
      ],
      "payable": false,
      "stateMutability": "view",
      "type": "function"
    },
    {
      "constant": false,
      "inputs": [
        {
          "name": "owner",
          "type": "address"
        },
        {
          "name": "docHash",
          "type": "string"
        }
      ],
      "name": "getDocStatus",
      "outputs": [
        {
          "name": "",
          "type": "string"
        }
      ],
      "payable": false,
      "stateMutability": "nonpayable",
      "type": "function"
    },
    {
      "constant": false,
      "inputs": [
        {
          "name": "docHash",
          "type": "string"
        },
        {
          "name": "isDiscoverable",
          "type": "bool"
        }
      ],
      "name": "updateDocDetails",
      "outputs": [],
      "payable": false,
      "stateMutability": "nonpayable",
      "type": "function"
    },
    {
      "constant": false,
      "inputs": [
        {
          "name": "verifier",
          "type": "address"
        },
        {
          "name": "dataHash",
          "type": "string"
        },
        {
          "name": "isDiscoverable",
          "type": "bool"
        }
      ],
      "name": "addDocToVerify",
      "outputs": [],
      "payable": false,
      "stateMutability": "nonpayable",
      "type": "function"
    },
    {
      "constant": false,
      "inputs": [
        {
          "name": "docOwner",
          "type": "address"
        },
        {
          "name": "docHash",
          "type": "string"
        }
      ],
      "name": "verifyDoc",
      "outputs": [],
      "payable": false,
      "stateMutability": "nonpayable",
      "type": "function"
    },
    {
      "constant": true,
      "inputs": [
        {
          "name": "dataHash",
          "type": "string"
        }
      ],
      "name": "getHash",
      "outputs": [
        {
          "name": "",
          "type": "bytes32"
        }
      ],
      "payable": false,
      "stateMutability": "pure",
      "type": "function"
    }
  ],
  "bytecode": "0x608060405234801561001057600080fd5b506114d8806100206000396000f300608060405260043610610078576000357c0100000000000000000000000000000000000000000000000000000000900463ffffffff1680632ecc0ddb1461007d5780635b6beeb9146100f2578063843672b814610177578063add39b1a14610279578063e21f37ce14610302578063e9b3115f14610392575b600080fd5b34801561008957600080fd5b506100f0600480360381019080803590602001908201803590602001908080601f0160208091040260200160405190810160405280939291908181526020018383808284378201915050505050509192919290803515159060200190929190505050610427565b005b3480156100fe57600080fd5b50610159600480360381019080803590602001908201803590602001908080601f016020809104026020016040519081016040528093929190818152602001838380828437820191505050505050919291929050505061059e565b60405180826000191660001916815260200191505060405180910390f35b34801561018357600080fd5b506101fe600480360381019080803573ffffffffffffffffffffffffffffffffffffffff169060200190929190803590602001908201803590602001908080601f0160208091040260200160405190810160405280939291908181526020018383808284378201915050505050509192919290505050610676565b6040518080602001828103825283818151815260200191508051906020019080838360005b8381101561023e578082015181840152602081019050610223565b50505050905090810190601f16801561026b5780820380516001836020036101000a031916815260200191505b509250505060405180910390f35b34801561028557600080fd5b50610300600480360381019080803573ffffffffffffffffffffffffffffffffffffffff169060200190929190803590602001908201803590602001908080601f0160208091040260200160405190810160405280939291908181526020018383808284378201915050505050509192919290505050610923565b005b34801561030e57600080fd5b50610317610d31565b6040518080602001828103825283818151815260200191508051906020019080838360005b8381101561035757808201518184015260208101905061033c565b50505050905090810190601f1680156103845780820380516001836020036101000a031916815260200191505b509250505060405180910390f35b34801561039e57600080fd5b50610425600480360381019080803573ffffffffffffffffffffffffffffffffffffffff169060200190929190803590602001908201803590602001908080601f0160208091040260200160405190810160405280939291908181526020018383808284378201915050505050509192919290803515159060200190929190505050610dcf565b005b600080600160003373ffffffffffffffffffffffffffffffffffffffff1673ffffffffffffffffffffffffffffffffffffffff1681526020019081526020016000209150600090505b81805490508110156105985761053c828281548110151561048d57fe5b90600052602060002090600402016000018054600181600116156101000203166002900480601f0160208091040260200160405190810160405280929190818152602001828054600181600116156101000203166002900480156105325780601f1061050757610100808354040283529160200191610532565b820191906000526020600020905b81548152906001019060200180831161051557829003601f168201915b505050505061059e565b600019166105498561059e565b60001916141561058b5782828281548110151561056257fe5b906000526020600020906004020160020160006101000a81548160ff0219169083151502179055505b8080600101915050610470565b50505050565b6000816040516020018082805190602001908083835b6020831015156105d957805182526020820191506020810190506020830392506105b4565b6001836020036101000a0380198251168184511680821785525050505050509050019150506040516020818303038152906040526040518082805190602001908083835b602083101515610642578051825260208201915060208101905060208303925061061d565b6001836020036101000a03801982511681845116808217855250505050505090500191505060405180910390209050919050565b6060600080600160008673ffffffffffffffffffffffffffffffffffffffff1673ffffffffffffffffffffffffffffffffffffffff1681526020019081526020016000209150600090505b81805490508110156108e25761078d82828154811015156106de57fe5b90600052602060002090600402016000018054600181600116156101000203166002900480601f0160208091040260200160405190810160405280929190818152602001828054600181600116156101000203166002900480156107835780601f1061075857610100808354040283529160200191610783565b820191906000526020600020905b81548152906001019060200180831161076657829003601f168201915b505050505061059e565b6000191661079a8561059e565b6000191614801561081157506001151582828154811015156107b857fe5b906000526020600020906004020160020160009054906101000a900460ff161515148061081057508473ffffffffffffffffffffffffffffffffffffffff163373ffffffffffffffffffffffffffffffffffffffff16145b5b156108d557818181548110151561082457fe5b90600052602060002090600402016001018054600181600116156101000203166002900480601f0160208091040260200160405190810160405280929190818152602001828054600181600116156101000203166002900480156108c95780601f1061089e576101008083540402835291602001916108c9565b820191906000526020600020905b8154815290600101906020018083116108ac57829003601f168201915b5050505050925061091b565b80806001019150506106c1565b6040805190810160405280600781526020017f554e4b4e4f574e0000000000000000000000000000000000000000000000000081525092505b505092915050565b6000806000806000600260003373ffffffffffffffffffffffffffffffffffffffff1673ffffffffffffffffffffffffffffffffffffffff1681526020019081526020016000209450600093505b8480549050841015610d2857610a3d858581548110151561098e57fe5b90600052602060002090600402016000018054600181600116156101000203166002900480601f016020809104026020016040519081016040528092919081815260200182805460018160011615610100020316600290048015610a335780601f10610a0857610100808354040283529160200191610a33565b820191906000526020600020905b815481529060010190602001808311610a1657829003601f168201915b505050505061059e565b60001916610a4a8761059e565b600019161415610d1b57600160008686815481101515610a6657fe5b906000526020600020906004020160030160009054906101000a900473ffffffffffffffffffffffffffffffffffffffff1673ffffffffffffffffffffffffffffffffffffffff1673ffffffffffffffffffffffffffffffffffffffff1681526020019081526020016000209250600091505b8280549050821015610d1a57610ba58383815481101515610af657fe5b90600052602060002090600402016000018054600181600116156101000203166002900480601f016020809104026020016040519081016040528092919081815260200182805460018160011615610100020316600290048015610b9b5780601f10610b7057610100808354040283529160200191610b9b565b820191906000526020600020905b815481529060010190602001808311610b7e57829003601f168201915b505050505061059e565b60001916610bb28761059e565b600019161415610d0d578282815481101515610bca57fe5b90600052602060002090600402019050338160020160016101000a81548173ffffffffffffffffffffffffffffffffffffffff021916908373ffffffffffffffffffffffffffffffffffffffff1602179055506040805190810160405280600881526020017f5645524946494544000000000000000000000000000000000000000000000000815250816001019080519060200190610c6a929190611016565b508484815481101515610c7957fe5b906000526020600020906004020160008082016000610c989190611096565b600182016000610ca89190611096565b6002820160006101000a81549060ff02191690556002820160016101000a81549073ffffffffffffffffffffffffffffffffffffffff02191690556003820160006101000a81549073ffffffffffffffffffffffffffffffffffffffff021916905550505b8180600101925050610ad9565b5b8380600101945050610971565b50505050505050565b60008054600181600116156101000203166002900480601f016020809104026020016040519081016040528092919081815260200182805460018160011615610100020316600290048015610dc75780601f10610d9c57610100808354040283529160200191610dc7565b820191906000526020600020905b815481529060010190602001808311610daa57829003601f168201915b505050505081565b6000610dd96110de565b600260008673ffffffffffffffffffffffffffffffffffffffff1673ffffffffffffffffffffffffffffffffffffffff168152602001908152602001600020915060a0604051908101604052808581526020016040805190810160405280600681526020017f515545554544000000000000000000000000000000000000000000000000000081525081526020018415158152602001600073ffffffffffffffffffffffffffffffffffffffff1681526020013373ffffffffffffffffffffffffffffffffffffffff1681525090508181908060018154018082558091505090600182039060005260206000209060040201600090919290919091506000820151816000019080519060200190610ef192919061113c565b506020820151816001019080519060200190610f0e92919061113c565b5060408201518160020160006101000a81548160ff02191690831515021790555060608201518160020160016101000a81548173ffffffffffffffffffffffffffffffffffffffff021916908373ffffffffffffffffffffffffffffffffffffffff16021790555060808201518160030160006101000a81548173ffffffffffffffffffffffffffffffffffffffff021916908373ffffffffffffffffffffffffffffffffffffffff16021790555050505081600160003373ffffffffffffffffffffffffffffffffffffffff1673ffffffffffffffffffffffffffffffffffffffff16815260200190815260200160002090805461100e9291906111bc565b505050505050565b828054600181600116156101000203166002900490600052602060002090601f016020900481019282601f1061105757805160ff1916838001178555611085565b82800160010185558215611085579182015b82811115611084578251825591602001919060010190611069565b5b509050611092919061135f565b5090565b50805460018160011615610100020316600290046000825580601f106110bc57506110db565b601f0160209004906000526020600020908101906110da919061135f565b5b50565b60a0604051908101604052806060815260200160608152602001600015158152602001600073ffffffffffffffffffffffffffffffffffffffff168152602001600073ffffffffffffffffffffffffffffffffffffffff1681525090565b828054600181600116156101000203166002900490600052602060002090601f016020900481019282601f1061117d57805160ff19168380011785556111ab565b828001600101855582156111ab579182015b828111156111aa57825182559160200191906001019061118f565b5b5090506111b8919061135f565b5090565b82805482825590600052602060002090600402810192821561134e5760005260206000209160040282015b8281111561134d57828260008201816000019080546001816001161561010002031660029004611218929190611384565b5060018201816001019080546001816001161561010002031660029004611240929190611384565b506002820160009054906101000a900460ff168160020160006101000a81548160ff0219169083151502179055506002820160019054906101000a900473ffffffffffffffffffffffffffffffffffffffff168160020160016101000a81548173ffffffffffffffffffffffffffffffffffffffff021916908373ffffffffffffffffffffffffffffffffffffffff1602179055506003820160009054906101000a900473ffffffffffffffffffffffffffffffffffffffff168160030160006101000a81548173ffffffffffffffffffffffffffffffffffffffff021916908373ffffffffffffffffffffffffffffffffffffffff1602179055505050916004019190600401906111e7565b5b50905061135b919061140b565b5090565b61138191905b8082111561137d576000816000905550600101611365565b5090565b90565b828054600181600116156101000203166002900490600052602060002090601f016020900481019282601f106113bd57805485556113fa565b828001600101855582156113fa57600052602060002091601f016020900482015b828111156113f95782548255916001019190600101906113de565b5b509050611407919061135f565b5090565b6114a991905b808211156114a5576000808201600061142a9190611096565b60018201600061143a9190611096565b6002820160006101000a81549060ff02191690556002820160016101000a81549073ffffffffffffffffffffffffffffffffffffffff02191690556003820160006101000a81549073ffffffffffffffffffffffffffffffffffffffff021916905550600401611411565b5090565b905600a165627a7a723058204a7cf60262fcd8e5b21845100aea47a9040906da81db99c6d7e282668aa373be0029",
  "source": "pragma solidity ^0.4.17;\ncontract Docverify {\n    \n    string public message;\n    struct docDetails {\n        string dataHash;\n        string status;\n        bool isDiscoverable;\n        address verifiedBy;\n        address requestedBy;\n    }\n    \n    //owner to docs mapping\n    mapping(address => docDetails[]) docs;\n    \n    //verifier to docs mapping\n    mapping(address => docDetails[]) docsToVerify;\n\n   //get the status of the doc \n    function getDocStatus(address owner, string docHash) public returns(string) {\n        \n        docDetails[] storage dd = docs[owner];\n          for(uint i=0; i<dd.length; i++ ){\n              \n                    if(getHash(docHash) == getHash(dd[i].dataHash)\n                        && (dd[i].isDiscoverable == true || msg.sender == owner)){\n                    \n                        return dd[i].status;\n                    }\n              \n          }\n          \n          return \"UNKNOWN\";\n        \n    }\n    \n    //update discoverable attribute if document\n    function updateDocDetails(string docHash, bool isDiscoverable) public {\n        \n        docDetails[] storage dd = docs[msg.sender];\n        for(uint i=0; i< dd.length; i++ ){\n        \n            if(getHash(docHash) == getHash(dd[i].dataHash)) {\n            \n                dd[i].isDiscoverable = isDiscoverable;\n            }\n                  \n        }\n    }\n    \n    //Add docs to verify\n    function addDocToVerify(address verifier, string dataHash, bool isDiscoverable) public {\n        \n        docDetails[] storage dd = docsToVerify[verifier];\n        //create a new doc\n        docDetails memory newDoc = docDetails({dataHash: dataHash, status: \"QUEUED\", isDiscoverable: isDiscoverable, \n                    verifiedBy: address(0), requestedBy: msg.sender} );\n                    \n        //add to the list of docs to verify            \n        dd.push(newDoc);\n        docs[msg.sender] = dd;\n      \n    }\n    \n    //verify a doc\n    function verifyDoc(address docOwner, string docHash) public {\n        //get doc details for the user\n        docDetails[] storage dd = docsToVerify[msg.sender];\n        \n        for(uint i=0; i<dd.length; i++ ){\n            //verify if doc hashes match\n            if(getHash(docHash) == getHash(dd[i].dataHash)) {\n                \n                //update docs map\n                //get docs for the owner\n                docDetails[] storage requestorDocs = docs[dd[i].requestedBy];\n                \n                //iterate through owner's docs\n                for(uint j=0; j<requestorDocs.length; j++){\n                    \n                    //verify if docs match\n                    if(getHash(docHash) == getHash(requestorDocs[j].dataHash)) {\n                        \n                            //update docs status\n                            docDetails storage updatedDetails = requestorDocs[j];\n                            updatedDetails.verifiedBy = msg.sender;\n                            updatedDetails.status = \"VERIFIED\";\n                            \n                            //remove the doc from the verifier map\n                            delete dd[i];\n                        \n                    }\n                }\n            \n            }\n        }\n        \n    }\n\n    function getHash(string dataHash) public pure returns (bytes32) {\n        return keccak256(abi.encodePacked(dataHash));\n    }\n\n    \n}",
  "sourcePath": "/home/sgdev/ethereum/examples/docVerify/contracts/Docverify.sol",
  "compiler": {
    "name": "solc",
    "version": "0.4.24+commit.e67f0147.Emscripten.clang"
  },
  "schemaVersion": "2.0.1",
  "updatedAt": "2019-01-09T03:50:24.464Z"
}